:020000040800F2
:10000000000002209D060008ED0600087518000893
:10001000ED060008ED060008ED06000800000000EF
:10002000000000000000000000000000ED060008D5
:10003000ED06000800000000ED0600086518000845
:10004000ED060008ED060008ED060008ED060008C4
:10005000ED060008ED060008ED060008ED060008B4
:10006000ED060008ED060008ED060008091300087B
:1000700015130008D10C0008211300082D130008E7
:1000800069860008ED060008ED060008ED06000888
:10009000ED060008ED060008ED060008ED06000874
:1000A000ED060008ED060008ED060008ED06000864
:1000B000ED060008ED060008ED060008ED06000854
:1000C000ED060008ED060008ED060008ED06000844
:1000D000ED0600085D860008ED060008ED06000844
:1000E000ED060008ED06000800000000ED0600081F
:1000F000ED060008ED060008ED060008ED06000814
:10010000ED060008ED060008ED060008ED06000803
:10011000ED060008ED060008ED060008ED060008F3
:10012000ED060008ED060008ED060008ED060008E3
:10013000ED060008ED060008ED060008ED060008D3
:1001400000000000000000000000000000000000AF
:10015000ED060008ED060008ED060008ED060008B3
:10016000ED060008ED060008ED060008ED060008A3
:10017000ED060008ED060008ED060008ED06000893
:10018000ED060008ED060008ED060008ED06000883
:10019000ED060008ED060008ED060008ED06000873
:1001A000ED060008ED060008ED060008ED06000863
:1001B00025800008ED060008ED060008ED060008A1
:1001C000ED060008ED060008ED060008ED06000843
:1001D000ED060008ED060008ED060008ED06000833
:1001E000ED060008ED060008ED060008ED06000823
:1001F000ED060008ED060008ED060008ED06000813
:10020000ED060008ED060008ED060008ED06000802
:10021000ED060008ED060008ED060008ED060008F2
:10022000ED060008ED060008ED06000800000000DD
:10023000ED060008ED06000800000000ED060008CD
:10024000ED060008ED060008ED060008ED060008C2
:10025000ED060008ED060008ED060008ED060008B2
:10026000ED060008ED060008ED060008ED060008A2
:10027000ED060008ED060008ED060008000000008D
:10028000ED060008ED060008ED060008000000007D
:0802900000000000ED0600086B
:1002980010B5054C237833B9044B13B10448AFF3B8
:1002A80000800123237010BD180000240000000006
:1002B8009802000808B5034B1BB103490348AFF384
:1002C800008008BD000000001C00002498020008FF
:1002D80053B94AB9002908BF00281CBF4FF0FF31A5
:1002E8004FF0FF3000F074B9ADF1080C6DE904CEA1
:1002F80000F006F8DDF804E0DDE9022304B07047F9
:100308002DE9F047089E04468846002B40F085807A
:100318008A42154648D9B2FA82F24AB1C2F1200798
:1003280001FA02F320FA07F7954047EA03089440D8
:100338004FEA154E230CB8FBFEF71FFA85FC0EFB9F
:10034800178843EA084307FB0CF1994209D9EB18CF
:1003580007F1FF3080F0E380994240F2E080023FED
:100368002B445B1AA4B2B3FBFEF00EFB103344EA35
:10037800034400FB0CFCA44509D92C1900F1FF33F8
:1003880080F0CB80A44540F2C88002382C4440EA73
:100398000740A4EB0C0400271EB1D4400023C6E993
:1003A80000433946BDE8F087002A53D0B2FA82F2FA
:1003B800002A40F0B680491B4FEA154E1FFA85F80F
:1003C8000127B1FBFEFC230C0EFB1C1143EA014381
:1003D80008FB0CF1994207D9EB180CF1FF3002D257
:1003E800994200F2EC808446591AA3B2B1FBFEF0A0
:1003F8000EFB101443EA044408FB00F8A04507D993
:100408002C1900F1FF3302D2A04500F2DC80184617
:10041800A4EB080440EA0C40BEE78B4208D9002E42
:1004280078D00027C6E9000138463946BDE8F0878C
:10043800B3FA83F77FB98B4202D3824200F2BD80C0
:10044800841A61EB030301209846002EA9D0C6E95F
:100458000048A6E7FFDEC7F12005BB4022FA05FCED
:100468004CEA030C01FA07F420FA05F821FA05F31F
:100478004FEA1C4E48EA0404B3FBFEF9210C0EFBBC
:1004880019331FFA8CF841EA034309FB08FA9A4525
:1004980002FA07F200FA07F10BD91CEB030309F182
:1004A800FF3080F088809A4540F28580A9F10209E2
:1004B8006344A3EB0A03A4B2B3FBFEF00EFB1033B4
:1004C80044EA034400FB08F8A04508D91CEB0404DF
:1004D80000F1FF336BD2A04569D90238644440EA81
:1004E8000940A4EB0804A0FB02894C45C6464B46CC
:1004F80054D351D0002E69D0B1EB0E0264EB030443
:1005080004FA05F522FA07F3FC401D43C6E9005436
:10051800002746E73746304643E7184637E7074699
:100528001FE7C2F1200320FA03F7954001FA02F011
:1005380021FA03F34FEA154E3843010CB3FBFEF7DB
:100548001FFA85F80EFB173341EA034107FB08F34E
:100558008B4204FA02F407D9691807F1FF3C28D244
:100568008B4226D9023F2944CB1A81B2B3FBFEF055
:100578000EFB103341EA034100FB08F38B4207D915
:10058800691800F1FF3C10D28B420ED90238294479
:10059800C91A40EA074714E74145ABD2B8EB020E47
:1005A80069EB0C0201381346A4E76046F0E71846E9
:1005B80095E76746D8E781467BE7384645E7ACF1DB
:1005C800020C2B4410E702382C4421E73746E8E6B2
:1005D800704700BF30B4194C0022194BD4F888106A
:1005E800184841F47001184DC4F888101C68174960
:1005F80044F001041C601A611C68204018609A616C
:10060800DA611A629A62DA621A635A639A63DA637F
:100618001A645A64186820F4802018601A662B68D7
:100628001940B1F1005F02D2094B01221A60034B55
:100638004FF0006230BC9A60704700BF00ED00E0E8
:10064800004402587FEDF6EA0010005C0000FFFF4E
:1006580008810051704700BF704700BF08B50548C2
:1006680000F042F8034800F049F90349014800F056
:1006780039F9FEE73400002461060008024A0349FC
:1006880003480AF029BF00BF000000245D060008E7
:1006980034000024DFF834D0002103E00C4B5B5811
:1006A800435004310B480C4B42189A42F6D30B4A7C
:1006B80002E0002342F8043B094B9A42F9D3FFF7C2
:1006C80089FF0AF01DFFFFF7C9FF704700000220ED
:1006D80014B70008000000241400002418000024A7
:1006E80078200024FEE700002DE9F04F044601269B
:1006F80000254FF0030904F5017804F5FC7B2F462B
:1007080004F5827A2DED048B85B09FED738A06F08F
:10071800ADFF302202231D21C4F80022204684F8B0
:100728002430B0EE489A84F8309084F8266084F833
:10073800286084F82A6084F82C5084F82E5007F03A
:100748003DF8A4F80662A4F80402404601F0BEFD94
:10075800D4F800122846DFED618A00F025FFD4F8AE
:100768000012304600F020FF204607F00DF809215E
:10077800204607F023F81E21ADF80C00204607F0AC
:100788001DF803A9ADF80E00584601F005FF4946CB
:1007980004F1D50001F0D4FD2946284601F006FEF3
:1007A8002946304601F002FE0C21204607F006F8E3
:1007B8000B21ADF80800204607F000F82946ADF8EF
:1007C8000400204606F0FAFFD4ED807AADF8000068
:1007D80004F1E400B8EE670A0299DDE9003288EE18
:1007E800000A01F095FE1121204606F0E7FF84F883
:1007F800FB6103B284F8FC5104F2F910C3F3072239
:1008080084F8F93184F8FA2101F060FD14212046BA
:1008180006F0D4FF03A9ADF80C0004F5BA7001F096
:10082800A1FE1321204606F0C9FF03A9ADF80C006C
:1008380004F5BD7001F096FE0921204606F0BEFFC2
:100848001E21ADF80C00204606F0B8FF03A9ADF84C
:100858000E00584601F0A0FE324604F5C07031463D
:1008680001F08AFE04221E4B04F1510084F8BD9069
:1008780084F8C720C4F8B93000F042F8F8B201375C
:1008880000F05AF9D4ED807A0146F0EE680AB8EE25
:10089800670A5046002301220AF11C0A89EE000A61
:1008A80001F01CFE042FE9D10021404601F036FD7D
:1008B8000A2001F04DF84046012101F02FFD1123D7
:1008C800C4F80C3201F042F8C4F8080205B0BDECD7
:1008D800048BBDE8F08F00BF008E3B476F12033BCF
:1008E8000406080108B5084600F054FE002000F090
:1008F80071FE0120BDE8084000F06CBE00F006B9AA
:100908007C4A00F1840100238A422DE9F0417A4CA7
:100918008CB090F876C002F11C05606384F800C0C2
:10092800C4E90425CDE90133CDE90333CDE9053325
:10093800CDE90733CDE9093309D200F1770302F194
:100948001A018B4234BF00230123002B71D00023EE
:10095800D0F87770D0F87B60D0F87F5090F883108B
:100968001383C4F80170C4F80560C4F809506173B2
:10097800C2E90033C2E90233C2E904335F4B0827F6
:100988005F4A4FF4807690F868104FF48020032572
:100998001A60586000220120C3F818C01F619E82A7
:1009A800DD629A601A77D860C3E90922C3E90C228C
:1009B80089BB83F838105148002502F00DFC01A9C5
:1009C8004E48019502F066FD40F2FF7302220420B2
:1009D8000021CDE906232378CDE90801C3B1062219
:1009E800DFF82481454E474F01E057F82520636B17
:1009F80004A9304605922B44013593F86930EDB2CD
:100A080058F82330049302F029F82378AB42ECD845
:100A18000CB0BDE8F081013983F83800C3E9112032
:100A2800B942C8D8DFE801F034393E43484D52583E
:100A38005F0090F878101383A17090F87B1090F8FD
:100A48007750617190F87E106570217290F881106E
:100A5800C2E90033C2E90233C2E9043390F87920CD
:100A680090F87A30E270237190F87C2090F87D300D
:100A7800A271E37190F87F2090F880306272A372BF
:100A880090F8822090F88330E1722273637375E7DF
:100A980003224021C3E90F218DE707226021C3E922
:100AA8000F2188E70F228021C3E90F2183E71F2246
:100AB800A021C3E90F217EE73F22C021C3E90F210E
:100AC80079E77F22E021C3E90F2174E7FF224FF481
:100AD8008071C3E90F216EE740F2FF124FF4907165
:100AE800C3E90F2167E740F2FF324FF4A071C3E971
:100AF8000F2160E70000003044020024181A002487
:100B080000200240D0B500089CB5000810B5084C7C
:100B180040F2FF724FF00111204602F069FC054BCC
:100B280020461A781969BDE8104002F0D9B900BF0B
:100B3800181A002444020024034B0C281B6998BF90
:100B480003EB40031846704744020024594B0268DF
:100B58002DE9F04F9A428DB04FF00004CDE90744DB
:100B6800CDE909440B9402D00DB0BDE8F08F524A8C
:100B7800DFF85081D2F8D810D8F8345041F020016D
:100B8800019005F16907C2F8D810D2F8D81001F021
:100B9800200103910399D2F8E01041F00401C2F852
:100BA800E010D2F8E01001F0040104910499D2F8A1
:100BB800E01041F00201C2F8E010D2F8E01001F0B4
:100BC800020105910599D2F8E01041F00101C2F83F
:100BD800E010D2F8E02098F8001002F00102069226
:100BE800069A002946D02246264607E0013498F89E
:100BF8000030E2B293423DD9D8F8345017F802B029
:100C080005EB4B09484601F0B7FE0546484601F09A
:100C1800BBFE0323079007A92846CDE9083605F04F
:100C280061FA08EB0B035B78002BDFD01A2306224E
:100C3800D8F834504FF0010A12FB0B3B5D4405F124
:100C4800060B284601F098FE81462846023501F039
:100C58009BFE0223079007A948460A93CDE908A6F8
:100C680005F040FAAB45ECD1013498F80030E2B217
:100C78009342C1D8114C0921114A4FF480634FF4B3
:100C88000060616022604FF400514FF4807223616C
:100C9800002360612046C4E90233C4E90833C4E98B
:100CA800061205F0BBFD019BDC64A3630DB0BDE833
:100CB800F08F00BF00200240004402587C1A002434
:100CC8004000024044020024014806F0C7B800BFB3
:100CD8007C1A002402683A4B9A4200D070472DE9EA
:100CE800F04F384D83B02978002965D000243AE0C8
:100CF80001F00109C2F34008C2F3800625F81A1072
:100D08004FF0060A0AFB030303F11A0A03F11C0B4E
:100D1800504601F031FE074650460AF1040A01F038
:100D280033FE4A460146384605F0D0FB584601F0E6
:100D380023FE8146584601F027FE424601464846B2
:100D480005F0C4FB504601F017FE8046504601F0FE
:100D58001BFE32460146404605F0B8FB29780134AF
:100D6800A3B2994228D9686B4FF0D009031993F8B8
:100D78006930EA1803F10C0A5778002FEFD035F8DC
:100D88001A1000266A695FFA81FE01310192B046A5
:100D98002A6989B24FEA0E1E32F814B0B942019A94
:100DA80009FB0422B14622F80EB0CAB2A0D94FF00E
:100DB800000225F81A20A3E703B0BDE8F08F00BFB2
:100DC8000020024044020024DC4B2DE9F04FD3F808
:100DD800104803F58261DFF87CB38BB04FEA840CCE
:100DE80003F1100586000BF5826801EB0C090BF185
:100DF80010009B6805EB0C0700EB0C0208EB0C0AD3
:100E080003EB060E95F80C38019606950992CDF875
:100E180014A0CDF81080CDE90219DBF80810CDE94F
:100E2800077001EB060C002B00F0C080012B47D1A6
:100E3800002C45D0134600210EF104090CF10408DA
:100E4800DFEDBF5A7246009452F8316059F83140CC
:100E580086F4000E5CF8316084F4000486F4000A1D
:100E6800AEF50006A4F5000406EE106A58F83160E5
:100E780007EE104AAAF5000A86F4000EB8EEC66A14
:100E880006EE90AAB8EEC77AAEF500040131F8EE86
:100E9800E66A07EE904A009C26EE256AF8EEE77AA5
:100EA8008C4266EEA56A27EE257AA5EC016A67EE04
:100EB800A57AE0EC016AA7EC017AE3EC017AC3D1E8
:100EC8009E4D224602A906A86B689847019ADBF84E
:100ED8000C10E86895F81C3811441044002B00F0F9
:100EE8009980012B59D1002C57D0DDF808A0002398
:100EF800DDF81490061DDDF810800D1DDDF80CE0FE
:100F08009FED907ADFF850C2DFED8F6A8F4F3BE09C
:100F1800F4EEE67AF1EE10FAC0F2D8803A46FEEC2A
:100F2800017A40F83320F4EEC77AF1EE10FA3BD993
:100F3800F4EEE67AF1EE10FAC0F2CF803A46F8EC19
:100F4800017A46F83320F4EEC77AF1EE10FA29D97F
:100F5800F4EEE67AF1EE10FAC0F2C6803A46F9EC01
:100F6800017A41F83320F4EEC77AF1EE10FA17D976
:100F7800F4EEE67AF1EE10FAC0F2BD803A4645F892
:100F8800332001339C4208D0FAEC017AF4EEC77A98
:100F9800F1EE10FABCD86246C1E70BB0BDE8F08F9D
:100FA8006246ECE76246DAE76246C8E7002C87D07B
:100FB8000EF104090CF10408DFED655A3EF933100F
:100FC80006EE101A3CF9331006EE901A39F9331070
:100FD800B8EEC66A07EE101A38F93310F8EEE66A6A
:100FE800013307EE901AB8EEC77A26EE256A9C42BE
:100FF800F8EEE77A66EEA56A27EE257AA5EC016A8F
:1010080067EEA57AE0EC016AA7EC017AE2EC017AD6
:10101800D4D155E7002CC0D0DDF808A0061DDDF8B6
:1010280014900D1DDDF81080DDF80CE09FED457A79
:10103800DFF824C1DFED446A444F38E0F4EEE67A85
:10104800F1EE10FA5EDB3A46FEEC017A40F8332006
:10105800F4EEC77AF1EE10FA36D9F4EEE67AF1EE4C
:1010680010FA56DB3A46F8EC017A46F83320F4EEEB
:10107800C77AF1EE10FA25D9F4EEE67AF1EE10FA15
:101088004EDB3A46F9EC017A41F83320F4EEC77AA0
:10109800F1EE10FA14D9F4EEE67AF1EE10FA46DB26
:1010A8003A4645F8332001339C423FF476AFFAECD8
:1010B800017AF4EEC77AF1EE10FABFD86246C3E7B8
:1010C8006246EEE76246DDE76246CCE7B0EE676A65
:1010D800BEEEE46A16EE102A21E7B0EE676ABEEEAD
:1010E800E46A16EE102A2AE7B0EE676ABEEEE46AF2
:1010F80016EE102A33E7B0EE676ABEEEE46A16EE23
:10110800102A3CE7B0EE676ABEEEE46A16EE102AD3
:101118009AE7B0EE676ABEEEE46A16EE102AA2E716
:10112800B0EE676ABEEEE46A16EE102AAAE7B0EEE1
:10113800676ABEEEE46A16EE102AB2E77C02002463
:101148000000003404FF7FBF04FF7F3F82FF7F0061
:1011580000000038A40A00247E0080FF0B4692009D
:10116800014618460AF0F0B9F8B5044601220E46C1
:1011780057484FF4804105F0A9F92368554A93422E
:1011880062D0203293425FD0534DD5F81848B6004C
:1011980095F81C3805F11000AA686408012B324440
:1011A80000EB840452D0A0420FD001469FED4B7A49
:1011B80052F8043B1BB207EE903AF8EEE77A67EE76
:1011C800877AE1EC017A8C42F2D105F5826495F8D0
:1011D8001E78D5F8102821462B6802FB07F298479D
:1011E800D5F8183895F81C28E9685B08012A3144B5
:1011F80004EB830340D09C421ED09FED397A3948D6
:10120800DFED396A9FED396A08E0F4EEE67AF1EE2F
:1012180010FA55DBA34241F8042B0DD0F4EC017A07
:1012280047F6FE72F4EEC77AF1EE10FAEDD80246F0
:10123800A34241F8042BF1D100224FF48041244805
:10124800BDE8F84005F042B9294D9EE7A042BCD060
:1012580001469FED287A52F8043B83F40003A3F576
:10126800000307EE903AF8EEE77A67EE877AE1EC4A
:10127800017A8C42EFD1A8E79C42DDD004399FED7A
:10128800187A1D4DDFED186A1C4808E0F4EEE67A7E
:10129800F1EE10FA0DDBA34241F8042FCCD0F4ECA8
:1012A800017A0246F4EEC77AF1EE10FAEED82A4631
:1012B800F1E7B0EE676ABEEEE46A16EE102AEAE7D6
:1012C80067EE867AFDEEE77A17EE902A12B2A1E76A
:1012D8000018025804580140A40A002400000038ED
:1012E80004FF7FBF0280FFFF04FF7F3F00FEFF4631
:1012F8007C020024000000347E0080FF82FF7F0013
:10130800014805F0ABBD00BF341D0024014805F0BD
:10131800A5BD00BFAC1D0024014805F09FBD00BF5E
:10132800241E0024014805F099BD00BF8C1B002431
:10133800D0E900232DE9F047D978802A8A4C06465F
:101348001F7828BF802293F80B90184693F80C80DA
:1013580088B0864D84F81C181979854BC4F8102874
:10136800C4F82468C5F81028C5F8246885F81C183E
:1013780023602B6000F040FDB06808B100F0EAFA85
:10138800F06808B100F0E6FAD5F810084FF0020E40
:10139800784A17F0FD0F0190D4F8100802F50063A1
:1013A800754900FA0EFA0198A96001F5006100FA82
:1013B8000EF0E260A360C4F818A8E960C5F8180840
:1013C80084F81EE885F81EE839D1F14584F81D989F
:1013D80000F09F80B9F1030F00F08B80B9F1010F85
:1013E80000F09180194601F1080002F108039942C2
:1013F80038BF8242C0F09F8042EA0100400740F0B7
:101408009A80A1F1080C02F5006E002000217345B6
:10141800ECE90201C2E900011A4603F10803F6D11A
:101428004FF40072002155480AF09CF84FF40072FE
:10143800002153480AF096F80023C4F814387B1E9C
:10144800012B10D900274F484FF480420123002474
:10145800077002A94C480594CDE9022304F042FE26
:1014680008B0BDE8F087B8F1010F85F81D885ED097
:10147800B8F1020F0AD171681023F0684BF6803278
:10148800897AB1FA81F1490906F0EEF9D5E9021233
:1014980001F1080002F10803994238BF824256D38D
:1014A80042EA0100400752D1083902F500604FF0C6
:1014B80000084FF000099842E1E90289C2E9008971
:1014C8001A4603F10803F6D14FF4007200212F48A1
:1014D800A7F102070AF046F84FF4007200212C48E1
:1014E8000AF040F8B7FA87F700237F09C4F81438E0
:1014F800A9E740F60133ADF80830029806F0BAFAC9
:10150800D4E902126FE7B06806F06EF9D4E9021266
:1015180069E771684BF680321023B068497AB1FAEE
:1015280081F1490906F0A0F9D4E902125BE7F068F5
:1015380006F05AF9AAE7081F01F2FC73043A0021E1
:1015480040F8041F984242F8041FF9D168E7081FC1
:1015580001F2FC73043A002140F8041F834242F868
:10156800041FF9D1B0E700BF7C020024A40A0024BC
:1015780065110008EC000030EC1000308C020024EB
:101588008C060024CC12002400180258B40A002447
:10159800B40E0024024A0121024B117058607047B2
:1015A800CC1200247C020024802928BF802150B955
:1015B800064B93F81E28C3F8101801FB02F14900E6
:1015C800C3F818187047024BF3E700BF7C020024E9
:1015D800A40A002410B5E8B9234CD4F82438B4F888
:1015E80018285B685B7983B1E168204802F03AFE0D
:1015F800D4F82438B4F818285B68DB791BBBA168D9
:101608001B48BDE8104002F0C7BEA168174802F0A9
:10161800C3FEEDE7174CD4F82438B4F818285B68F3
:101628009B79E3B9A168144802F0B6FED4F82438CF
:10163800B4F818285B681B7A5BB9A1680F48BDE845
:10164800104002F0A9BEE1680948BDE8104002F068
:1016580009BEE1680948BDE8104002F003BEE16830
:10166800054802F0FFFDE1E77C0200249C1E0024EF
:101678009C1C0024A40A0024041C0024F41A00243E
:10168800084B1B78012B07D10368074A934206D001
:101698002032934203D070470021FFF765BD002038
:1016A800FFF792BBCC120024045801400B4B1B7867
:1016B800012B07D103680A4A934209D0203293428A
:1016C80006D07047074BD3F818184908FFF74CBDE8
:1016D800044BD3F818084008FFF776BBCC12002457
:1016E800045801407C0200242DE9F043CFB04C227D
:1016F80000210BA809F036FF2022002102A809F0DA
:1017080031FFBC2200211EA809F02CFF022005F0A1
:10171800FFFE4F4A00214F4B01911846D16A21F034
:101728000101D162D26A02F0010201929A6942F47F
:1017380040429A619B6903F440430193019B83698A
:101748009B04FCD5444A02242121C820936A4FF403
:101758008035012623F003032343936204230B916E
:10176800082205211693002317900BA80C951196B3
:1017780018941A9419911D93CDE91444CDE91B23AB
:1017880002F028FF00B1FEE73F26032700220823C6
:1017980002A82146CDE90267CDE90423402640236B
:1017A8004FF480624027CDE90823CDE9066703F0AE
:1017B8003DFA034600B1FEE74FF4805280210A2625
:1017C800022733948024469500254FF054084FF0A3
:1017D80008091EA8CDE93B334FF48073CDE93412D4
:1017E800439319A3D3E90023CDE92267CDE91E234A
:1017F8000022062340F227164027CDE92445CDE9EB
:101808002623042420254FF480620023CDE928678D
:10181800CDE92A45CDE92C230026022700240025FE
:1018280000224FF44013CDE92089CDE92E67CDE998
:101838003045CDE93E2303F055FC00B1FEE705F045
:101848008DFE4FB0BDE8F08309130F0304000000BC
:1018580000040058004802580044025808B505F032
:10186800DBFEBDE8084001F047BF00BFFFBE704780
:1018780070B584B0012505F0A1FE0024FFF734FF00
:1018880001F0EEFE4FF040512E4A4FF48073684647
:101898000191ADF80050CDE9022301F003FF40F2B9
:1018A800011119224FF040436846ADF80E108DF82B
:1018B800082001938DF801508DF80D408DF80A40ED
:1018C80001F0F0FE042001F0DBFE06F0EDF8BFF3B6
:1018D8004F8FBFF36F8F1C4BC3F85042BFF34F8F2E
:1018E800BFF36F8F5A6942F400325A61BFF34F8FCA
:1018F800BFF36F8FC3F88440BFF34F8FD3F88010C6
:1019080043F6E074C1F34E32C1F3C901520102EA51
:101918000405084645EA80760138C3F86062461C2B
:10192800F8D1203A12F1200FF1D1BFF34F8F5A6945
:1019380042F480325A61BFF34F8FBFF36F8F04B008
:1019480070BD00BF0D00010300ED00E005F070BEA2
:1019580005F074BE38B5054601F01EF804462B782C
:10196800013B022B40D8DFE803F027023400286847
:10197800214B224A1860A988998022606B79012B33
:1019880024D073B3022B01D11D4B636000250123C2
:101998002046E360A5602562C4E90455C4E90655FC
:1019A80002F068F82946204602F092F929462046B6
:1019B800BDE8384002F0B6B9124B2868124A1860E0
:1019C800A98899806B792260012BDAD10F4B63606B
:1019D800DCE728680E4B0F4A1860A98899802260B6
:1019E800CCE70D4B6360D1E728680C4B0C4A1860B4
:1019F800A98899802260C1E7E0120024005C0040B9
:101A08001A098010D8120024005800403211D02042
:101A1800E8120024001C00588A62E030D01200242A
:101A28000054004003689C4A934270B58CB055D06E
:101A38009A4A934200F09C80994A934200F0EE80C3
:101A4800984A934201D00CB070BD974B974DD3F88C
:101A5800E020681C42F00202C3F8E020D3F8E0302E
:101A680003F002030693069B00F086FF0646681CF7
:101A780000F08AFF2A7812210023012ACDE9070104
:101A8800CDE9093301D804230B9307AC304621462E
:101A980004F028FB864800F06FFF0646844800F0F3
:101AA80073FF2A7812210023012ACDE90701CDE925
:101AB800093301D804230B932146304604F012FB66
:101AC800794BD3F8F42042F08002C3F8F420D3F81D
:101AD800F43003F080030793079BB4E7724B754D0E
:101AE800D3F8E020681C42F00202C3F8E020D3F8E3
:101AF800E03003F002030093009B00F03DFF064630
:101B0800681C00F041FF2A7812210023012ACDE940
:101B18000701CDE9093301D804230B9307AC3046FC
:101B2800214604F0DFFA644800F026FF06466248C2
:101B380000F02AFF2A7812210023012ACDE90701A3
:101B4800CDE9093301D804230B932146304604F02C
:101B5800C9FA554BD3F8E82042F40012C3F8E8203C
:101B6800D3F8E83003F400130193019B0CB070BD67
:101B78004D4B524DD3F8E020681C42F08002C3F868
:101B8800E020D3F8E02002F080020292029AD3F813
:101B9800E02042F00202C3F8E020D3F8E03003F07E
:101BA80002030393039B00F0E7FE0646681C00F05F
:101BB800EBFE2A7812210023012ACDE90701CDE99D
:101BC800093301D804230B9307AC3046214604F0AF
:101BD80089FA3B4800F0D0FE0646394800F0D4FEAA
:101BE8002A7812210023012ACDE90701CDE909331A
:101BF80001D804230B932146304604F073FA2A4B8C
:101C0800D3F8E82042F48002C3F8E820D3F8E8309B
:101C180003F480030493049B0CB070BD294D681C29
:101C280000F0AAFE0646681C00F0AEFE2A781221D3
:101C38000023012ACDE90701CDE9093301D804239E
:101C48000B9307AC3046214604F04CFA1E4800F0CE
:101C580093FE06461C4800F097FE2A7812210023BE
:101C6800012ACDE90701CDE9093301D804230B93F3
:101C78002146304604F036FA0B4BD3F8E82042F4FC
:101C88000002C3F8E820D3F8E83003F40003059312
:101C9800059B0CB070BD00BF0054004000580040C8
:101CA800005C0040001C005800440258E812002460
:101CB800EB120024D0120024D3120024D8120024DE
:101CC800DB120024E0120024E31200241B4B2DE950
:101CD800F0471E79012E2DD04FF000094E46184DC1
:101CE8000227184A4BF6803100244FF001083B4682
:101CF8002A6029624A4631462846EC61EC60C5E90B
:101D08000178C5E90544C5E90B4402F001FA0E4D16
:101D18003B460E4F4A46314628466C61EC61EC6002
:101D28006C632F60C5E90184C5E90B44BDE8F04741
:101D380002F0EEB94FF00209D1E700BFF812002413
:101D4800041C0024045C0140F41A0024245C0140B3
:101D58002DE9F041254DEE78012E38D000276B7A19
:101D68003E46002B37D0012B3CD16B792048002B05
:101D78000CBF03230223436000244BF6803C31460A
:101D88003A4684600223C461C460C0F820C0C0E938
:101D98000544C0E90B44164802F0BAF9EB7931461C
:101DA800144DA3424FF0010C3A4628460CBF0326B7
:101DB80002266C6102236E60EC61EC606C63C5F80E
:101DC80008C0C5E90B44BDE8F04102F0A1B96B7A3F
:101DD8000227002BC7D16B790548B3FA83F35B0957
:101DE8004360C9E7024801234360C5E7F8120024AD
:101DF8009C1E00249C1C0024F8B5194F044600F1D1
:101E0800200C3E462068103454F80C1C354654F813
:101E1800082C103654F8043C64450FC5F2D12378D9
:101E2800104A3370104C11493B78114D1460012B46
:101E3800104804F58064104A0D6010490460116070
:101E480005D043B1022B00D0F8BDFFF781FFBDE8F4
:101E5800F840FFF73BBFBDE8F840FFF779BF00BF88
:101E6800F81200249C1E0024045801409C1C0024E5
:101E780024580140041C0024F41A0024245C014066
:101E8800414BD3F8E02042F010022DE9F04FC3F89F
:101E9800E02095B0D3F8E02005463C4802F0100257
:101EA8000292029AD3F8E02042F00202C3F8E0203E
:101EB800D3F8E02002F002020392039AD3F8E0205C
:101EC80042F04002C3F8E020D3F8E02002F04002DC
:101ED8000492049AD3F8E02042F00802C3F8E02004
:101EE800D3F8E02002F008020592059AD3F8E02022
:101EF80042F00402C3F8E020D3F8E02002F0040224
:101F08000692069AD3F8E02042F00102C3F8E020D6
:101F1800D3F8E02002F001020792079AD3F8E020F4
:101F280042F48072C3F8E020D3F8E0102A6801F484
:101F38008071824208910899D3F8E01041F080013D
:101F4800C3F8E010D3F8E01001F080010991099975
:101F5800D3F8E01041F02001C3F8E010D3F8E01006
:101F680001F020010A910A9918D0094B9A4200F011
:101F78008780084B9A4200F0C280074B9A4200F0D3
:101F8800FD8015B0BDE8F08F0044025804580140A8
:101F980024580140045C0140245C0140BA4A11689D
:101FA800002900F06481DFF820B3002401310DF12D
:101FB8003C080BEB4406D946116000275FFA84FA07
:101FC8003046ECB9B14B48465A7A82B900F0D4FC95
:101FD8000646484600F0D8FC062202230F904146E8
:101FE8003046CDE91034CDE9124204F07BF80134D3
:101FF80000270BEB44065FFA84FA3046002CE1D048
:1020080000F0BAFC01903046062600F0BDFC0199AC
:1020180002230F9008464146CDE91037CDE91276E4
:1020280004F060F8BAF1040FE1D16B685722984CBC
:102038004FF4805023F0020396494FF480666061A4
:10204800012B2046E7600CBF002340236762A36092
:102058004FF4003326612362C4E900124FF4807202
:102068004FF48041C4E9061204F0D8FB2A688A4B71
:10207800C5F884409A42A563C5F880407FF479AFDB
:10208800814A136863B98549D1F8F00040F48000AB
:10209800C1F8F000D1F8F01001F480010C910C990E
:1020A800696801337E4C4FF4804021F002011360CF
:1020B8007C4A4FF4805301294FF0580722604FF4AF
:1020C80080710CBF0022402263614FF480660023B8
:1020D800A2604FF40032A0612046E360636267604B
:1020E8002661C4E9071204F099FB2A686E4BC5F80B
:1020F80084409A42A563C5F880407FF43EAF6B4B9D
:102108001A6862B96549D1F8F00040F40000C1F8D6
:10211800F000D1F8F01001F400010D910D996968F3
:102128000132634C4FF4804021F002011A60614A89
:102138004FF4805301294FF0590722604FF4807102
:102148000CBF0022402263614FF480660023A26026
:102158004FF40032A0612046E36063626760266145
:10216800C4E9071204F05AFB2A68534BC5F88440A7
:102178009A42A563C5F880407FF403AF4B4B1A68B9
:10218800002A66D000244D4E01320DF13C08A146CC
:102198004FF0020A1A603046E7B2C4B93B4B9B7A4B
:1021A8007BB900F0E9FB8346304600F0EDFB0A22DC
:1021B800CDE90F0ACDE9114458464146139203F080
:1021C80091FF01340236E7B23046002CE6D000F029
:1021D800D3FB8346304600F0D7FB022F0F904FF019
:1021E8000A0241465846CDF84890CDE910A92ED0AC
:1021F800139203F077FF042FE3D16B685A22304C17
:102208004FF4806623F002032E4962604FF4805237
:10221800012B4FF4804021604FF480710CBF0023E4
:102228004023A0612046A3600023C4E904624FF460
:102238000032E3606362C4E9071204F0EFFAC5F8FC
:102248008440A563C5F8804015B0BDE8F08F08222A
:10225800B2E71249D1F8F00040F40000C1F8F000EC
:10226800D1F8F01001F400010E910E998AE7D3F825
:10227800F00040F48000C3F8F000D3F8F03003F425
:1022880080030B930B9B8EE6F0120024F8120024B7
:10229800341D002410000240245801400044025814
:1022A800AC1D002428000240045C0140F412002404
:1022B800241E002458000240245C01400F1300240F
:1022C8008C1B002470000240051300248378012B26
:1022D80030B5044687B01FD0DBB900230293E378FA
:1022E800012B14D08BB900230393002320460493B9
:1022F80000F042FB0546204600F046FB01A901908C
:10230800284603F0EFFE07B030BD022BEBD1039354
:10231800EBE7022BE1D111230293E0E770B5064603
:102328000D4600F029FB0446304600F02DFB2A1C20
:102338000146204618BF0122BDE8704004F0C6B827
:1023480070B5184C8AB00D46237E60619BB10020A1
:1023580002210026002200230496CDE90001CDE9E0
:102368000223C5B1032D16D005F0FD03012B0AD0B9
:1023780065760AB070BD0C4B2046236001F0C0F9A9
:1023880001232376E3E710226946064801F014FA90
:1023980065760AB070BD00226946024801F00CFA61
:1023A800E2E700BF1C1300240074004070B5204C05
:1023B8000E4663695B78002B0CBF082500250128B1
:1023C80021D041B289B103280ED133462A460021D3
:1023D800204601F0D9F9334610212A46204601F05B
:1023E800D3F963691978F1B170BD33462A4620469E
:1023F80001F0CAF9636919780029F5D12046BDE8CA
:10240800704001F093B90B462A461021204601F08E
:10241800BBF963691B78002BE6D120461021BDE883
:10242800704001F083B9204601F080F9F5E700BF5C
:102438001C1300240268264B9A4200D07047254B93
:102448000020D3F8E81070B541F00051224C88B054
:102458000325627EC3F8E810D3F8E81001F00051B4
:1024680001910199D3F8E01041F00101C3F8E0109F
:10247800D3F8E030049503F0010305900293029B22
:102488003AB1AA4205D002F0FD02012A11D008B0E3
:1024980070BD65690235284600F06EFA0646284682
:1024A80000F072FA03A90390304603F01BFE627E27
:1024B800E9E764690434204600F05EFA05462046E0
:1024C80000F062FA03A90390284603F00BFEDEE74A
:1024D80000740040004402581C130024B6EE007A31
:1024E800016060EE200A80ED020AF7EE007A0276BB
:1024F800437660EE870AC0ED047A87EEA07A10B4BE
:102508000024C46044615DF8044B80ED017A704793
:1025180030B504464FF4807510302DED028B85B030
:10252800B0EE408AADF80C100180A2826582E58287
:10253800ADF80820ADF80430FFF7C8FE04F1140028
:10254800FFF7C4FEB0EE480A2046019900F0F8F9FA
:1025580000224FF6FF73E261238305B0BDEC028BC6
:1025680030BD00BF0988002201808270C2700271EC
:102578004271FFF7ABBE00BF10B5044601700230D0
:10258800627005F0BBFF0023072263672271E370C6
:10259800236710BD704700BF2DE9F0430F46DD4D9E
:1025A800012683B037F8023B2846DB4C4FF0000881
:1025B800AE704FF020092B80FFF788FE3B8820463D
:1025C800A670B0272380FFF781FED44805F0A6FE49
:1025D80020464146FFF7A2FE0A20FFF7B9F9314627
:1025E80020463C46FFF79AFE0A20FFF7B1F9AE23D2
:1025F800284641468DF80730FFF790FE32460DF128
:102608000701C64805F0B8FE284641468DF80790F0
:10261800FFF784FE32460DF10701C04805F0ACFE15
:10262800284641468DF80780FFF778FE32460DF1BF
:102638000701BA4805F0A0FE414628468DF8077004
:10264800FFF76CFE32460DF10701B44805F094FE21
:10265800C823414628468DF80730FFF75FFE32460B
:102668000DF10701AD482F4605F086FE4146284684
:102678008DF80780FFF752FE32460DF10701A74893
:1026880005F07AFE1023414628468DF80730FFF7FB
:1026980045FE32460DF10701A04805F06DFE4023C6
:1026A800414628468DF80730FFF738FE32460DF1CF
:1026B80007019A4805F060FE8123414628468DF8B7
:1026C8000730FFF72BFE32460DF10701934805F05E
:1026D80053FEFF23414628468DF80730FFF71EFEBC
:1026E80032460DF107018D4805F046FEA12341460B
:1026F80028468DF80730FFF711FE32460DF1070125
:10270800864805F039FEA623414628468DF807304D
:10271800FFF704FE32460DF10701804805F02CFE54
:10272800A823414628468DF80730FFF7F7FD3246C3
:102738000DF10701794805F01FFE3F234146284661
:102748008DF80730FFF7EAFD32460DF107017348AF
:1027580005F012FEA423414628468DF80730FFF7FE
:10276800DDFD32460DF107016C4805F005FED32367
:10277800414628468DF80730FFF7D0FD32460DF167
:102788000701664805F0F8FD414628468DF80780A0
:10279800FFF7C4FD32460DF10701604805F0ECFD76
:1027A800D523414628468DF80730FFF7B7FD324656
:1027B8000DF10701594805F0DFFDF0234146284691
:1027C8008DF80730FFF7AAFD32460DF1070153488F
:1027D80005F0D2FDD923414628468DF80730FFF78A
:1027E8009DFD32460DF107014C4805F0C5FD222339
:1027F800414628468DF80730FFF790FD32460DF127
:102808000701464805F0B8FDDA23414628468DF809
:102818000730FFF783FD32460DF107013F4805F009
:10282800ABFD1223414628468DF80730FFF776FDA9
:1028380032460DF10701394805F09EFDDB2341467C
:1028480028468DF80730FFF769FD32460DF107017C
:10285800324805F091FD414628468DF80790FFF76C
:102868005DFD32460DF107012C4805F085FDAF23CB
:1028780041462846DFF8AC908DF80730FFF74EFD4B
:1028880032460DF10701254805F076FD41464FF423
:1028980080624846214E08F065FE002138468DF8D2
:1028A800074001340D46FFF739FD01220DF10701FC
:1028B8003046E4B205F060FD294638468DF80750E9
:1028C800FFF72CFD01220DF10701304605F054FDFC
:1028D8001023294638468DF80730FFF71FFD0122DF
:1028E8000DF10701304605F047FD01213846FFF795
:1028F80015FD49468022304605F03EFDB82C09F109
:102908008009CAD1064B01221D605A7103B0BDE887
:10291800F08300BF3C170024481700243817002410
:102928004017002438130024024A0349034808F0DA
:10293800D3BD00BF000000249D25000838170024DF
:10294800F7EE007A03460122C1F3072087EE800ADA
:1029580030B4987082B00025002498185970DD6052
:10296800DC701A709A809A71ADF8041083ED020A2F
:1029780002B030BCFFF7AABC0278024B53F8220021
:10298800704700BF30B600084278024B33F8120097
:10299800704700BF10B6000810B485B00478074B24
:1029A8000DF1100C0FCB0CEB84040CE90F0054F85C
:1029B800100C05B05DF8044B704700BF7CB50008EB
:1029C800704700BF08B5806BFFF7FAFF08BD00BF6E
:1029D800704700BF836B5A6D12F0500F5A6D10B5D7
:1029E80023D1196842F400725A650A6812F0080F78
:1029F800CA6814D012F4406F0DD1CA6894040AD47E
:102A08005A6D22F480725A655A6DD10403D45A6DF6
:102A180042F001025A651846FEF75CF910BD9007AE
:102A2800EED01846FEF756F9F8E7D20604D4DB6C68
:102A3800BDE81040DB6C18471846FFF7C9FF10BD0A
:102A480008B5836B5A6D184642F040025A659A6D74
:102A580042F004029A65FFF7BBFF08BD90F85030BA
:102A68000022F0B5012B83B0019200F01C810368AD
:102A780001229C6880F85020660700F18E800C685F
:102A8800C4F31305C4F38467002D40F09280BA4064
:102A98004C684FF01F0CDD69A60904EA0C042A43B0
:102AA80003F1300506F00C060CFA04FCDA6107FAAB
:102AB80004F4725922EA0C02224372519A685507AB
:102AC80075D49D6815F008054BD10C6803F1140600
:102AD80007228F684FEAD45CC4F304540CF0040C4A
:102AE80002FA04FE07FA04F4C24F5CF8062022EA50
:102AF8000E0222434CF806203A68DC6802F0704265
:102B0800B2F1805F4A6900F08A8014F0100FDC6827
:102B180000F08580640804F0080402FA04F4D1F88F
:102B280010C00E68BCF1040F00F0C18003F160070B
:102B380006F0F84691F819E057F82C20BEF1010F7D
:102B480002F0004208BF4FF000453243224347F8E5
:102B58002C200C6957F8242022F00042154347F82E
:102B680024509A68D40716D4CE680C6806F0180763
:102B7800A14AD3F8C050FA40C4F31307DFF8A4C23F
:102B8800224025EA0705664542EA0502C3F8C02047
:102B98004BD0002C15DB002203E0436D43F02003EB
:102BA8004365002380F85030104603B0F0BD9A68A2
:102BB800D7E794FAA4F4B4FA84F404F01F04A2400A
:102BC80066E78E4A934200F0B18002F58072934224
:102BD80000F0AC808A4E8B4DAA68B16802F0E076AE
:102BE800C94301F00101002900F0AE8086498C42FA
:102BF80000F0CD8085498C4200F0EB8084498C42FE
:102C0800C9D15202C7D47E4A9342C4D1AB680022CC
:102C180023F0E073334343F48003AB60C1E7C4F3AC
:102C28008204640002FA04F479E7002F5AD094FA77
:102C3800A4F2B2FA82F2013202F01F02092A00F26B
:102C4800898094FAA4F2B2FA82F294FAA4F50126E1
:102C5800B5FA85F501323544920605F01F0502F0F4
:102C6800F84206FA05F52A4394FAA4F4B4FA84F46F
:102C7800344404F01F0404EB44042405144303F112
:102C880014064FF0070C8A68E70DC4F3045407F0E4
:102C980004070CFA04FCA240BD5925EA0C041443AD
:102CA800BC510C6875E70222104603B0F0BD1C6EDB
:102CB800B20604F0F844944233D05C6E04F0F84451
:102CC800A24229D09C6E04F0F844A2421FD0DC6EC8
:102CD80004F0F844A2427FF444AFDA6E22F00042D6
:102CE800DA663EE70122A40E144404F01F05A40688
:102CF80002FA05F6092D04F0F84205EB450442EA0C
:102D08000602BAD91E3C240544F00074B6E79C6E4E
:102D180024F000449C66DAE75C6E24F000445C66AC
:102D2800D0E71C6E24F000441C66C6E7394A334ECF
:102D3800394915469268B768896802F0E0763943E0
:102D4800C94301F001014EE7436D012243F020031E
:102D5800436526E794FAA4F2B2FA82F294FAA4F54B
:102D68000126B5FA85F501323544920605F01F05AE
:102D780002F0F84206FA05F52A4394FAA4F4B4FAE4
:102D880084F4344404F01F0404EB4404BAE7110249
:102D98003FF501AF1A4A93427FF4FDAE1F4BAA6874
:102DA8001B681F4922F0E0729B093243A1FB031301
:102DB80042F400029B09AA605B000193019B002B6F
:102DC8003FF4E9AE019B013B0193019B002BF9D134
:102DD800E1E612F080727FF4DEAE09498B427FF49F
:102DE800DAAEAB6823F0E073334343F08073AB6033
:102DF800D7E600BF0010005CFFFF0F000020024074
:102E08000060025800630258000084CB000052C7DB
:102E18000000B8CF00230240002102400400002433
:102E2800632D3E050000FF4702689168CB0701D576
:102E38000020704770B5244904469068084208D0BD
:102E4800626D012042F010026265A26D0243A26524
:102E580070BD91681D4B0B4043F00103936004F073
:102E6800E7FB23681A4A0546934224D002F580728C
:102E7800934220D0174A92681A68D20722D4134E78
:102E880003E023681A68D1071CD49A68D00704D4D1
:102E98009A68324042F001029A6004F0C9FB401B74
:102EA8000228EED9636D012043F010036365A36D1A
:102EB8000343A36570BD084A9268D606DCD0074A6A
:102EC8009342D9D1002070BD3F000080C0FFFF7F32
:102ED8000020024000630258002302400021024003
:102EE8002DE9F04104463A4D0068A84219D005F58D
:102EF8008075A84215D0374DAE688068430715D451
:102F080094F85030012B11D006F01F060123092E2A
:102F180084F850300DD90023012084F85030BDE8E2
:102F2800F0812D4DAE6880684307E9D50220BDE8E1
:102F3800F08140F22120F040C04310EA0305EAD1B5
:102F4800204617468846FFF76FFF00283AD1626D82
:102F5800224B2568134043F48073636516B1204BF8
:102F68009D4203D0636D23F480136365636D13F48E
:102F780080532BD0A36D23F00603A365E16C1C26B8
:102F8800DFF868C03B4617480027C1F83CC04246F6
:102F9800DFF85CC008640846C1F84CC005F1400180
:102FA8002E606E6884F8507046F010066E6003F06C
:102FB800FFFD22680C4B91680B4043F004039360BB
:102FC800BDE8F08184F85050BDE8F081A365D5E7ED
:102FD800002002400063025800230240FEF0FFFF79
:102FE80000210240CD290008C0FFFF7FDD2900082D
:102FF800492A000838B503689968890702D59B688B
:10300800002038BD9968CA0723D59968044601F09D
:103018000D01012908D0636D012043F01003636599
:10302800A36D0343A36538BD986803210A4A02408B
:1030380042F002029A60196004F0FAFA054604E0C8
:1030480004F0F6FA401B0228E5D823689B68DB07E2
:10305800F6D4002038BD00BFC0FFFF7F38B5554A01
:1030680004460368934228D002F58072934224D024
:10307800514B9B6813F4403F14BF012300232BB32B
:1030880001F0EAFE63680546B3F5003F00F084806E
:10309800B3F5403F7ED0B3F5803F7DD004F0E0FA31
:1030A80041F20303984234D8444A2368954254D9DC
:1030B8009A6842F480729A6038BD414B9B6813F459
:1030C800403F14BF01230023002BD9D14FF4002027
:1030D80002F026FF63680546B3F5C01F2CD021D93E
:1030E800B3F5101F60D007D8B3F5E01F58D0B3F57B
:1030F800001FD3D14509D1E7B3F5201F52D0B3F54E
:10310800301FCBD104F0ACFA41F20303984223D923
:103118002D0A2C4A2368954224D89A6822F44072D2
:103128009A6038BDB3F5402F06D00AD8B3F5802F82
:1031380002D0B3F5002FB1D19B0C5B00B5FBF3F5C2
:10314800ACE7B3F5801FF7D0B3F5A01FA6D19B0C51
:103158005B00B5FBF3F5A1E723689A6822F4807257
:103168009A6038BD184A19492A448A420BD9184A24
:1031780018492A448A429A6818D822F4407242F4BC
:1031880000729A6038BD9A6822F4407242F48072E4
:103198009A6038BD850881E71B0CB5FBF3F57DE720
:1031A80005097BE7C50979E7850977E742F44072A5
:1031B8009A6038BD0020024000630258002D31019A
:1031C80000230240105E5F00EFA1A0FF0F5E5F00CA
:1031D800DF4341FF1FBCBE00F0B5002383B001935D
:1031E800002800F0D180456D0446002D00F0BA801B
:1031F80022689368980003D59168714B0B409360DF
:103208009368D90015D46F4B90681B686E4D9B0965
:103218006E49A5FB035301409B0941F08051916021
:103228000193019B2BB1019B013B0193019B002B57
:10323800F9D19368DB0024D4636D012543F01003B2
:103248006365A36D2B43A365936813F0040F636D47
:103258001DD1DF061BD4636D23F4817343F0020391
:1032680063659368DE0728D4594B9A4217D003F553
:1032780080739A4213D0574B9B68D9071DD4564A7E
:1032880015E09368002513F0040F636DE1D0636DBA
:10329800012543F010032846636503B0F0BD4C4A8E
:1032A8004E4B92689B681343D80706D44C4A9368E0
:1032B800616823F47C130B43936004F0D1F941F265
:1032C8000303627D9842207F52D85103A368060405
:1032D800276B43EA070232430A43012803D1236AD2
:1032E800013B42EA4342636A23B103F47873A16A5B
:1032F8000B431A4323683B49D86801400A43DA6004
:103308009A6812F0040F9A681CD112071AD4D86868
:10331800354A217D0240E06A42EA813294F8381049
:1033280002430129DA603BD01A6922F001021A61CE
:103338001A692046616B22F070420A431A61FFF74E
:103348008DFE2368E268012A22D01A6B22F00F0250
:103358001A63636D284623F0030343F00103636592
:1033680003B0F0BDFDF7F2FBA56584F850503FE7C8
:10337800A36851030604276B102BAAD146EA010261
:103388003A4342F01C02A8E70125284603B0F0BDE5
:10339800196BA26921F00F01013A0A431A63D8E7B1
:1033A8001869124ED4E910210640A06C0A43E16B5B
:1033B8003243024342EA014242F001021A61B7E78E
:1033C800C0FFFF5F04000024632D3E05C0FFFF6FB0
:1033D80000200240006002580063025800210240A9
:1033E8000023024003C0F0FFFCBFFFFF1EF800FCF3
:1033F800F0B590F8505083B00026012D01963FD0CB
:103408000123044615460E4680F85030FFF7F2FDBA
:10341800636DE0B905F080421B4D06F480312668E3
:103428001D401A4B1A4F45F002056565B5682B40DB
:1034380013430B4343F00043B360B368002B0EDB28
:10344800636D23F0030343F00103636502E043F077
:1034580010036365002384F8503003B0F0BD019B6E
:1034680001330193019BBB42E7D9636D0022012020
:1034780023F0120384F8502043F010036365ECE74F
:10348800022003B0F0BD00BFFDEEFFFFC0FFFE3F0E
:10349800FF955A5590F85020012AF0B40E6849D08B
:1034A8000346294A01201C6883F85000944208D03A
:1034B8005A6D002142F0200283F850105A65F0BC82
:1034C8007047224DAA6852070AD5A2685A6D012092
:1034D80042F020025A65002283F85020F0BC704761
:1034E800A06810F00400F1D1C6B1DFF868C04F68D9
:1034F800DCF8082022F440423A43CCF80820A468BB
:10350800AA682243D40713D48A68DCF80840104913
:10351800164321400E43CCF80860DCE70D498A6861
:1035280022F440428A60A068AA680243D00704D502
:103538000020D0E70220F0BC70478C683046044A6F
:1035480022408A60C7E700BF0020024000210240F5
:10355800E0F0FFFF0023024007490002074BCA685A
:1035680000F4E06010B44FF6FF0422405DF8044B0D
:1035780010430343CB60704700ED00E00000FA05FC
:10358800174B30B4DC68C4F30224C4F10705231DCB
:10359800042D28BF0425062B18D9033C4FF0FF3310
:1035A800A34022EA03024FF0FF33002803FA05F391
:1035B80021EA030303FA04F343EA02034FEA03137D
:1035C800DBB206DB074A135430BC704700221446AE
:1035D800E9E700F00F00044A135430BC704700BFFD
:1035E80000ED00E000E400E014ED00E0002807DB57
:1035F80000F01F0101234009024A8B4042F82030A5
:10360800704700BF00E100E000280DDB43090122FC
:1036180000F01F000549203302FA00F041F82300AA
:10362800BFF34F8FBFF36F8F704700BF00E100E01B
:103638000138B0F1807F0DD2074B0022072130B44A
:10364800F025064C5860104684F823509A6019609B
:1036580030BC70470120704710E000E000ED00E04A
:10366800BFF35F8F044A00200449536A23F4803370
:1036780053624860704700BF00ED00E090ED00E045
:10368800064A40F00100064B5860536A43F4803301
:103698005362BFF34F8FBFF36F8F704700ED00E0A9
:1036A80090ED00E0124A437893600178E9B14368ED
:1036B80070B4D360C37A047B1B06857A867B43EAA1
:1036C8000473447B0B43017A43EAC543C57B43EA51
:1036D8008443447A43EA464343EA054343EA0423DE
:1036E80043EA410370BC13617047D16011617047B0
:1036F80090ED00E0704700BF08B5FFF7FBFF08BD7D
:1037080088B1037910B503F0FF0204463BB10023EA
:1037180002210122217118462361227110BD4271D4
:10372800FEF788FEF3E70120704700BF4279012ABF
:1037380027D0034601F01002006830B402250124A6
:103748001D7104FA02F205685C712A43026002687E
:1037580069B902F03E02022A02D14268224342605D
:1037680000220121104619715A7130BC704702F4C9
:103778007812B2F5003FF3D1426842F0020242608B
:10378800EEE70220704700BF10B4006883B0002441
:103798000194019051B90199083111440191019A9C
:1037A8000020136003B05DF8044B70470199143191
:1037B80011440191F3E700BF4379D1F800C0012B10
:1037C80000F095800223BCF1040F2DE9F041164664
:1037D8004FF001020D460446427103713ED006F0D7
:1037E80010020368296901292ED0EE680727A96805
:1037F80007FA02F0DF6B31436D6827EA000740F6ED
:10380800FE7641EA0C014FF4804095409640914085
:1038180090404FF0000C3943C027D96307FA02F1F2
:103828001A68012722EA000260461A601A6822EA2A
:1038380006022A431A601A6822EA01021A602771EE
:1038480084F805C0BDE8F0811F26986B6969964029
:10385800914020EA060001439963C6E7CEB903F018
:10386800E7FE244F804605E003F0E2FEA0EB0800E7
:10387800012833D823685B6B3B42F5D1012003F064
:10388800DDFE2368AA691A640DE003F0D1FE012861
:1038980024D823685B6B002BF7DB012003F0CEFEF6
:1038A8002368AA695A6406F0100240F2FF3C986C3B
:1038B800FF21EF690CFA02FC01FA02F6296A20EAF4
:1038C8000C009740D5F800C03843986401FA02F01C
:1038D800D96C21EA06010143D96483E723690322ED
:1038E80043F00803104623612271BDE8F0810220ED
:1038F800704700BF0080002070B504460D4616468C
:103908006A1C23682CD19A69950727D49A69D0062E
:10391800F9D59A699506FCD520221021D961DA617A
:103928009A69900701D500229A629A69D10703D44F
:103938009A6942F001029A615A6800211F4E2025B7
:10394800012032405A60636C84F8401043F004034D
:10395800636484F8415084F8421070BD002070BD43
:103968009A699107FAD49A69D1061ED59A6992067E
:10397800D2D403F05DFE801B854209D345B123688C
:103988009A699206C8D403F053FE801B8542F5D28B
:10399800636C2021002201200B4384F840206364DB
:1039A80084F8411084F8422070BD03F041FE801B6A
:1039B800A842EDD8002DA3D1EAE700BF00E800FE39
:1039C80070B504460D46164623689A6992064CD48B
:1039D8009A69D20626D5681C38D19A699506FCD50D
:1039E80020221021D961DA619A69900701D5002255
:1039F8009A629A69D10703D49A6942F001029A61DE
:103A08005A6800211A4E2025012032405A60636C02
:103A180084F8401043F00403636484F8415084F848
:103A2800421070BD03F004FE801BA84201D8002D8F
:103A3800CAD1636C2021002201200B4384F8402066
:103A4800636484F8411084F8422070BD9A69920634
:103A5800C6D403F0EDFD801B8542EAD3002DE8D0E3
:103A680023689A699106F4D5BAE7002070BD00BFB3
:103A780000E800FE00284DD0F8B590F84130044623
:103A880003F0FF02002B40D02421E568A06884F8E9
:103A98004110012DD4E90032196822F0706221F03A
:103AA800010119601A619A6822F400429A6028D0CC
:103AB80040F40440022D986002D14FF400625A602D
:103AC8005A68002114482027A6691043D4E9042520
:103AD80058602A43D868E56942EA0622266A20F433
:103AE80000403543D8600846DA601D601A6842F025
:103AF80001021A60616484F84170216384F84210FD
:103B0800F8BD40F400409860DAE780F84020FDF7FF
:103B180089FFB9E701207047008000022DE9F047CE
:103B280090F84140089E202C40F08A8090F8404050
:103B3800012C00F085809846012391460F4680F8B5
:103B48004030044603F074FD054604E003F070FDC0
:103B5800401B192877D82368986910F40040F5D1DC
:103B680010222121C4F82490C7F3090784F84110D2
:103B780084F842206064A4F82A80628D6063FF2A7A
:103B88006FD8618DDFF838C15A6889B24A4802EAAD
:103B98000C025FFA81FC21853A4342EA0C42104349
:103BA8005860DFF824814FF0FF0ADFF82091638D19
:103BB8002A46314620469BB2002B2FD0FFF79CFEA9
:103BC800002875D1606A216810F8012B238D8A625C
:103BD800628D013B6062013A9BB292B22385628595
:103BE800628D92B2002AE2D0002BE0D1731C42D140
:103BF8008B691B06FCD5638DFF2B4BD94B682A4676
:103C0800A4F828A0204603EA08033B4343EA090333
:103C18004B603146638D9BB2002BCFD1FFF7D0FEAE
:103C2800002845D123682021244DD9615A682A40AB
:103C38005A6084F8411084F8400084F8420000E09B
:103C48000220BDE8F087636C2021002201200B438D
:103C580084F84020636484F8411084F84220BDE869
:103C6800F0875A68FF20164920850A4015493A43CB
:103C78001143596095E78B691A06BCD403F0D8FC48
:103C8800401B8642DFD3002EDDD021688B691806E1
:103C9800F4D5B0E7628D4B6892B203EA0803D0B25C
:103CA80022853B4343EA004343F000734B607EE7C1
:103CB8000120BDE8F08700BF0020008200E800FE78
:103CC800009800FC0020FF81009C00FC0000FF0120
:103CD800F0B490F84140E4B2202C1FD190F8402075
:103CE8000346012A1AD01A682420002783F84100C5
:103CF8001668384626F001061660166826F48056BF
:103D0800166015680D431560116841F001011160D6
:103D180083F8414083F84070F0BC70470220F0BC43
:103D2800704700BF90F84120D2B2202A1FD1034625
:103D380090F8400001281AD02420F0B41C6800270D
:103D480083F841002668384626F001062660256873
:103D580025F4706545EA01252560216841F00101D7
:103D6800216083F8407083F84120F0BC704702203E
:103D7800704700BF002800F04A812DE9F041044651
:103D880003F06EFC94F838302268012B17D0B24B40
:103D98009A4226D020339A4223D003F578739A4268
:103DA8006AD020339A4267D003F578739A4200F0BC
:103DB800798120339A4200F07581A84D12E0A64B14
:103DC8009A4205D003F1C053A3F582339A4205D134
:103DD8006368012B02D1636C002BD8D00120BDE8A9
:103DE800F0819F4D94F8913003F0FF01002B4AD0E9
:103DF8009C4B9D4819681368A0FB010123F480338C
:103E0800090B13608B00002928D01168C90308D555
:103E18001168023BC90304D503B31168013BC90308
:103E2800FAD4E3680221012B84F891101FD08B4249
:103E380015BF0E462320032022260BBF212701276A
:103E480020210021A368013B042B00F25B81DFE8FD
:103E580013F02B0122002E0121003201D4F89430F6
:103E6800012043F04003C4F89430BDE8F0811320EA
:103E7800122611271021E5E794F891307B4D03F0C5
:103E8800FF01002BB4D184F890102046FDF7F8FF0D
:103E98002268ADE731464FF40068236A2960002B99
:103EA80041D06D4B9A4200F01C817148101AB0FA4B
:103EB80080F04009002840F014816E4B9A4200F0CF
:103EC8000A8120339A4200F006816B4B9A4200F037
:103ED800FC8020339A4200F0F880684B9A4200F048
:103EE8000B81674B9A4200F00281A26900EB8000C7
:103EF800236AB2F5002F4FEA400000F0E080A26A82
:103F0800B2F1806F08BF5B001B02B0FBF3F35D4AA0
:103F1800A2FB0312D20802EB8201A3EB4103092B97
:103F280008BF013262626268236D32F0020740F016
:103F3800B380012B18BF4FF4007703F091FB63683F
:103F4800B0F5005FD4E9111243EA010374D31A43B0
:103F5800E36CE16A1A43A06923680A436169A66AA7
:103F68000A431968D4F824C002434748324308403A
:103F7800216918600A4319684FF22000434E0A432A
:103F880042EA0C5242EA08023A43414F1A60596821
:103F9800E2690E40216B1143626B5E6011435E68FB
:103FA800626E3143E66D3243266E5960324399683A
:103FB800666D0F40A16D013E01399F6032439E68D6
:103FC80042EA0122A16E3243E66E9A6041EA060295
:103FD800D968666F0840216F42EA06421E4E0139D1
:103FE800D860D868B34242EA012242EA0002DA60A5
:103FF8000FD0224A93420CD000230122C4F89430F7
:10400800184684F8903084F89120BDE8F0810120AA
:1040180070476B6C94F8382023F00103012A6B6415
:10402800EAD1D4E90F23013A43EA02136B646B6CBB
:1040380043F001036B64DFE7E16C1A4360690A43EC
:10404800E16A23680A43A6691968024311483243A2
:104058000840D4E909C18CE70458014000540058CD
:1040680000580140040000241BECCB95005C014083
:1040780024580140045C0140046001400454005885
:1040880024540058CDCCCCCC10C005F0F01FFFFF55
:104098000080F8FF10C005F8012B14BF00274FF46B
:1040A80000774AE7194D9DE64FF48068F5E63946F2
:1040B8004FF40068F1E601464FF40068EDE6626DE2
:1040C80002FB03F3B0FBF3F321E74FF4007001F0B8
:1040D80027FF226801E74FF4007001F021FF2268F2
:1040E800F3E64FF4807001F01BFF2268E5E64FF419
:1040F800006001F015FFF8E64FF4806001F010FF52
:104108002268EEE64FF00008C7E600BF00600140F5
:10411800F0B4042904D8DFE801F0272727060600B1
:104128000120F0BC7047456800244FF4003603674F
:1041380035F002054FF4802544640CBF012727465B
:1041480004294FF6FF7107650CBF01270D27C464CA
:10415800C465876584664167C0E91865032ADFD8A6
:10416800DFE802F03B352E2545680024036735F06B
:1041780002054464C4644FF4803508BF264684664B
:104188004FF6FF7418BF0126C565446713F0010494
:104198000665C5D14D1E012D26D84FF40035C0E95E
:1041A8001854032ABCD8DFE802F0524333295B01D4
:1041B800E021802243658164C266F0BCFFF7DABD66
:1041C8005B01C021802243658164C266F5E78022D5
:1041D8005B0182644365C266EFE71B0180214022D0
:1041E80043658164C266E8E74FF48025C0E9184555
:1041F800032A95D8DFE802F02B1C0C025B08E024A8
:1042080080219A0184645B01C166C0E91523D4E763
:104218005B08C025802402294FEA831285644FEA8F
:104228004313C466C0E91523C7D108238366C4E7CE
:104238005B08802202294FEA831482644FEA431301
:10424800C266C0E91543B8D110238366B5E75B0899
:10425800802440215A0184641B01C166C0E91523EA
:10426800ABE700BF2DE9F84389460446904603F0C2
:10427800DFF9B9F1000F69D0B8FA88F67609002E8F
:1042880064D194F89150EDB2012D5BD194F890303F
:10429800012B57D0074630464FF0120CD4F8802037
:1042A80068F30F00C4F8946084F891C0494668F335
:1042B8001F40DFF8D8C084F890504346E0671046A6
:1042C800C4F87890DFF8C8E0C2F840C0DFF8C4C08E
:1042D8001665C2F83CE0C2F84CC022681C3202F0F5
:1042E80067FC00283FD1626C6368082A32D0052138
:1042F80061209A1E2368012A98BF01461A690A4359
:104308001A611A6842F400321A605A6912F4E02FEE
:1043180005D02DE023685A6912F4E02F28D103F064
:1043280087F9C01BB0F57A7FF4D9D4F8943000220D
:10433800032543F0400384F890202846C4F89430BD
:10434800BDE8F88302252846BDE8F88301252846FC
:10435800BDE8F88323F00202012A0BBF15210521CD
:1043680071206120C5E784F890602846BDE8F8838D
:104378001A68D20303D41A6842F480321A600025FE
:1043880084F890502846BDE8F88300BFE54400084B
:104398008144000861450008F8B5002953D0B2FAF5
:1043A80082F77F09002F4ED190F89160F6B2012E66
:1043B80046D190F89030012B42D004461546384635
:1043C8004FF0220CA1670A4665F30F00D4F8841059
:1043D8002B46C4F8947065F31F40234D84F891C0B0
:1043E800E067084684F89060DFF884C00D641F4DCC
:1043F8000F65C1F83CC0CD6421681C3102F0D8FBC0
:1044080020BB23681A68D20303D41A6842F48032A6
:104418001A60616C626808291CD005206125023A7F
:104428001969012A98BF2846002501432E461961BB
:1044380030461A6842F400321A6084F89050F8BD89
:1044480002263046F8BD01263046F8BD84F8907043
:104458003046F8BD22F0020101290BBF15200520C6
:1044680071256125DBE700BF51450008614500085B
:10447800F1440008704700BF38B5C369806BB3F5D5
:10448800807F19D003680022446C1968082CA0F8B2
:104498007E2021F400314268196010D06FF0610568
:1044A8006FF00504023A1969012A98BF2C460125C4
:1044B8002140196180F89150FFF7DCFF38BD22F0E8
:1044C800020101290BBF6FF071056FF061056FF0F4
:1044D80015046FF00504E5E7704700BF08B5806B69
:1044E800FFF7FAFF08BD00BF38B5C369806BB3F5A5
:1044F800807F19D003680025446C1968082C42682D
:1045080021F400311960A0F87E5010D06FF06105D9
:104518006FF00504023A1969012A98BF2C46012553
:104528002140196180F89150FDF7C0F838BD22F09C
:10453800020101290BBF6FF071056FF061056FF083
:1045480015046FF00504E5E708B5806BFDF798F8EA
:1045580008BD00BF704700BF10B5846B02F0D6FFDE
:1045680002282BD0D4F89430216843F08003174AEE
:104578001748C4F894300B68126823F40033A0FB82
:1045880002020B600868120B20F480309300086068
:10459800AAB10A68D20308D50A68023BD00304D539
:1045A8006BB10A68013BD203FAD4012200232046EA
:1045B80084F89120A4F87E30FFF7CCFF10BDD4F822
:1045C800943043F04003C4F89430EEE7040000242C
:1045D8001BECCB95002800F0EA81F8B50368044687
:1045E800D9072ED5B2490A69896A02F03802102A19
:1045F80000F00481182A00F0FC806368B3F5803F5E
:1046080000F02481002B00F06281B3F5A02FA84BA5
:104618001A6800F0408222F480321A601A6822F484
:1046280080221A6003F004F8A14D064605E002F066
:10463800FFFF801B642800F248812B689B03F6D596
:104648002368980700F18980D90630D5984A1369FC
:10465800926A03F03803082B00F0E080182B00F072
:10466800D880E369002B00F06F81914B1A681D46D2
:1046780042F080021A6002F0DBFF064605E002F015
:10468800D7FF801B022800F220812B68DB05F6D5B6
:1046980002F0E6FF41F20303984200F21E826B68C3
:1046A800226A23F0F84343EA82636B6023681D079C
:1046B80017D56369002B00F021817D4B5A6F1D4689
:1046C80042F001025A6702F0B3FF064605E002F025
:1046D800AFFF801B022800F2F8806B6F9807F6D5B1
:1046E80023689A0617D5A369002B00F01A81704B2E
:1046F8001A681D4642F480521A6002F099FF064675
:1047080005E002F095FF801B022800F2DE802B688E
:104718009F04F6D52368590700F19E80636AD3B1D8
:10472800634A116901F03801182970D0022B136807
:1047380000F0478123F080731446136002F078FF7D
:10474800054605E002F074FF401B022800F2BD8018
:1047580023689B01F6D40020F8BD554A1369926A74
:1047680013F038032AD1524BE1681B685A0701D568
:1047780000294CD04E4A1368154623F019030B4301
:10478800136002F055FF064605E002F051FF801B5A
:10479800022800F29A802B685B07F6D502F060FFCA
:1047A80041F20303226998426B6800F2F98023F40E
:1047B8007C3343EA02336B60236845E7182B00F02B
:1047C800EB80E268002A00F0D38039490B680D4677
:1047D80023F0190313430B6002F02AFF064604E096
:1047E80002F026FF801B02286FD82B685F07F7D5D9
:1047F800D4E701F0030102297FF4FFAE2C4A1268C6
:1048080092037FF51EAF6268002A7FF41AAF012079
:10481800F8BD02F00302012A7FF423AF244B1B6882
:10482800DA0502D5E369802BF1D102F019FF41F2D4
:1048380003031F4A9842216A00F2BB80536823F0A1
:10484800F84343EA81635360236830E7184A1368E2
:1048580043F480331360E5E6164B1A681D4642F4AC
:1048680080721A6002F0E4FE064604E002F0E0FE00
:10487800801B642829D82B68DA05F7D5A368012B93
:1048880000F03481002B00F00E81052B084B1A6FC5
:1048980000F0328122F001021A671A6F22F0040236
:1048A8001A6702F0C5FE024D074641F2883608E055
:1048B800004402580048025802F0BAFEC01BB04239
:1048C80003D82B6F9B07F7D528E70320F8BD8E4B3D
:1048D8001A681D4622F480321A601A6822F480226F
:1048E8001A6002F0A5FE064604E002F0A1FE801B55
:1048F8006428EAD82B689F03F7D4A1E6824B5A6F45
:104908001D4622F001025A6702F092FE064604E0B4
:1049180002F08EFE801B0228D7D86B6F9907F7D458
:10492800DEE6794B1A681D4622F480521A6002F0BE
:104938007FFE064604E002F07BFE801B0228C4D8F6
:104948002B689804F7D4E5E66F4B1A681D4622F0E9
:1049580080021A6002F06CFE064604E002F068FE6F
:10496800801B0228B1D82B68DF05F7D423689EE6A0
:10497800654B1A681D4622F001021A6002F058FEC3
:10498800064604E002F054FE801B02289DD82B68DE
:104998005807F7D4236857E691077FF412AFE2E689
:1049A80023F0FE4343EA02636B6023684CE6012070
:1049B8007047D36823F07C5343EA0163D3602368CC
:1049C80075E623F080731546136002F031FE064643
:1049D80005E002F02DFE801B02283FF676AF2B681B
:1049E8009901F6D4AA6A494BA06A1340E26A484979
:1049F8000343454E43EA0213AB62276BD4E90D32F9
:104A0800013F501E013BE26BC7F308075B0200043D
:104A1800013A9BB200F4FE001206034302F0FE4284
:104A28003B4313432B63EB6A23F00103EB626A6B8E
:104A3800A36C114041EAC3016963EB6A226C23F05D
:104A48000C031343EB62EB6A626C23F0020313431B
:104A5800EB62EB6A43F48033EB62EB6A43F40033B6
:104A6800EB62EB6A43F48023EB62EB6A43F00103E9
:104A7800EB622B6843F080732B6002F0D9FD04468B
:104A880005E002F0D5FD001B02283FF61EAF336893
:104A98009A01F6D55FE642F480221A601A6842F459
:104AA80080321A60BEE5184B41F288371A6F1D46EE
:104AB80022F001021A671A6F22F004021A6702F044
:104AC800B7FD064605E002F0B3FD801BB8423FF68D
:104AD800FCAE2B6F9807F6D420E6EB68226A23F029
:104AE8007C5343EA0263EB602368E0E5064A136FF0
:104AF80043F001031367D4E642F004021A671A6F01
:104B080042F001021A67CCE6004402580CFCFFFF91
:104B18000700FFFF3E4A136903F03803102B04D047
:104B2800182B0DD01BB13B4870473B4870471368A2
:104B3800990647D513683948C3F3C103D84070476D
:104B4800916A906AD36AC0F3051010B4546BB0B37D
:104B5800C4F3CC0403F0010301F0030107EE900A4B
:104B680003FB04F30129F8EEE77A07EE103ABAEEF0
:104B7800E97A29D059B3022926D1DFED295AC5EEA1
:104B8800A76A136BC3F3080307EE903AB7EE006AFF
:104B9800F8EEE77A37EE877A37EE067A27EE267A46
:104BA8001B4B1B6BC3F34623013307EE903AF8EE19
:104BB800E76AC7EE267AFCEEE77A17EE900A5DF808
:104BC800044B704715487047DFED165AD7E713684E
:104BD8009B061AD51068B7EE005A1049C0F3C100F9
:104BE800136BC140C3F3080306EE901AF8EEE65AB9
:104BF80006EE903AB8EEE66AC5EEA76A36EE077A90
:104C080037EE057A26EE877ACAE7DFED075AB6E768
:104C18000044025800093D000024F4000090D0032D
:104C28000024744B0024744A0024744C78B1864ADA
:104C3800136803F00F038B420BD2136823F00F03A2
:104C48000B431360136803F00F038B4201D001205C
:104C5800704703682DE9F0415D070BD57B4C05696A
:104C6800A26902F07002954204D9A26922F070028A
:104C78002A43A2611C070BD5744C4569E26902F00E
:104C88007002954204D9E26922F070022A43E26177
:104C9800DA060BD56D4C8569E26902F4E06295424B
:104CA80004D9E26922F4E0622A43E2619F060BD547
:104CB800664CC569226A02F07002954204D9226ADC
:104CC80022F070022A4322629E0704460D4603F032
:104CD800010257D55D4EC068B16901F00F018842E5
:104CE80004D9B16921F00F010143B161002A30D024
:104CF800564AA168936923F470630B439361616812
:104D08001368022900F09680032900F08F8001299A
:104D180000F096805F0732D54C4A41F28838136913
:104D2800164623F007030B43136102F081FC074684
:104D380004E002F07DFCC01B40457FD833696268FF
:104D480003F03803B3EBC20FF3D123689E0706D5EF
:104D5800E0683E498A6902F00F02824260D83A4907
:104D68000A6802F00F02AA420FD90A6822F00F025D
:104D78002A430A600A6802F00F02AA4205D00120FD
:104D8800BDE8F081002AB3D1E9E758070BD52F49D0
:104D980020698A6902F07002904204D28A6922F07E
:104DA800700202438A6119070BD528496069CA69EC
:104DB80002F07002904204D2CA6922F070020243E3
:104DC800CA61DA060BD52149A069CA6902F4E06212
:104DD800904204D2CA6922F4E0620243CA619B0687
:104DE8000BD51A4AE169136A03F07003994204D299
:104DF800136A23F070030B431362FFF78BFE134B08
:104E080013499B69134AC3F30323CB5C03F01F03C5
:104E180020FA03F30F20BDE8F041136002F0A8BBAD
:104E28008A6922F00F021043886198E79A013FF5DA
:104E380073AFA4E798033FF56FAFA0E703209FE7A0
:104E4800DB053FF569AF9AE700200052004402589D
:104E58008CB500080400002408B501F02DF9064BB4
:104E680006499B69064A03F00F03CB5C03F01F0356
:104E7800D840106008BD00BF004402588CB5000837
:104E88000800002410B501F017F90949094A8B698F
:104E9800094C03F00F03D35C03F01F03D8402060D4
:104EA800CB69C3F30213D35C03F01F03D84010BDD2
:104EB800004402588CB500080800002410B501F021
:104EC800FBF80949094A8B69094C03F00F03D35CC5
:104ED80003F01F03D8402060CB69C3F30223D35CDF
:104EE80003F01F03D84010BD004402588CB50008D9
:104EF800080000243B4AF8B5936A03F00303032B28
:104F080069D013680F460646144623F08063136081
:104F180002F08EFB054604E002F08AFB401B0228E3
:104F280057D823681A01F7D4A36A326823F47C336C
:104F38002D4943EA0233A3627568D6E90232013D7E
:104F4800501E013B3269C5F308055B020004013AB3
:104F58009BB200F4FE001206034302F0FE422B430C
:104F68001343A363E36A726923F0C0031343E36244
:104F7800E36AB26923F020031343E362E36A23F090
:104F88001003E362E26BF369114041EAC301E16394
:104F9800E36A43F01003E362E36AF7B1012F0CBF41
:104FA80043F4801343F40013E3620E4B1A681C4663
:104FB80042F080621A6002F03BFB054604E002F012
:104FC80037FB401B022804D823681B01F7D50020B3
:104FD800F8BD0320F8BD0120F8BD43F40023E362C7
:104FE800E3E700BF004402580700FFFF3B4AF8B55B
:104FF800936A03F00303032B69D013680F46064630
:10500800144623F08053136002F012FB054604E0B7
:1050180002F00EFB401B022857D823689A00F7D4E9
:10502800A36A326823F07C732D4943EA0253A362D2
:105038007568D6E90232013D501E013B3269C5F35D
:1050480008055B020004013A9BB200F4FE00120658
:10505800034302F0FE422B4313432364E36A72695D
:1050680023F440631343E362E36AB26923F40073F1
:105078001343E362E36A23F48073E362626CF369C7
:10508800114041EAC3016164E36A43F48073E36257
:10509800E36AF7B1012F0CBF43F4000343F08073B8
:1050A800E3620E4B1A681C4642F080521A6002F006
:1050B800BFFA054604E002F0BBFA401B022804D8F8
:1050C80023689B00F7D50020F8BD0320F8BD012018
:1050D800F8BD43F48003E362E3E700BF00440258ED
:1050E8000700FFFF2DE9F8430368044613F0006545
:1050F80014D0426EB2F5801F00F0C6841AD9B2F5FA
:10510800001F00F0B983B2F5401F40F02F83994883
:105118000025016D21F440110A430265DE0513D50F
:10512800626D042A0FD8DFE812F08204890476043D
:1051380027042704002A40F019838E48C16A41F4E5
:105148000031C162E3E701252E4698051BD5A26D03
:10515800802A00F0B38400F2A180002A00F0A9831D
:10516800402A40F0A2800021201DFFF7C3FE2368DB
:105178000646002E40F073837E49A06D0A6D22F426
:10518800E07202430A6559051FD5D4F8A420B2F588
:10519800800F00F08A8400F28B80002A00F083835D
:1051A800B2F5001F40F08C800021201DFFF7A2FE01
:1051B80023680646002E40F054836E49D4F8A400B4
:1051C8008A6D22F4600202438A651A051DD5D4F857
:1051D800A820B2F1007F00F04E8474D8002A00F0B5
:1051E8005C83B2F1807F74D10021201DFFF782FE1D
:1051F80023680646002E40F02E835E49D4F8A800A6
:105208008A6D22F0E06202438A659F010BD5A26C89
:10521800102A00F0BD8368D9202A00F02483302AA0
:1052280065D001252E46D8041BD5E26DB2F5005F86
:1052380000F0328450D8002A00F02983B2F5805F4C
:1052480050D10021201DFFF755FE23680646002E89
:1052580040F003834749E06D0A6D22F4E0420243BF
:105268000A65990459D5226EB2F5003F00F0A28371
:1052780048D842B1B2F5803F4DD10121201DFFF73A
:1052880039FE23680646002E40F038833949206EDF
:105298000A6D22F4E02202430A653EE0C02A3FF488
:1052A80068AFB2F5807F3FF464AF01252E466AE708
:1052B800B2F5C00F3FF47EAFB2F5000F3FF47AAFFE
:1052C80001252E4681E7B2F1407F93D0B2F1806F7D
:1052D80090D001252E4698E7B2F5405FB7D0B2F5D9
:1052E800804FB4D001252E46BBE7002A99D1002E65
:1052F80040F0ED821F49A06CCA6C22F030020243D4
:10530800CA6490E7B2F5802FBDD0B2F5A02FBAD00D
:10531800B2F5403FB7D001252E465A0437D5D4F808
:10532800AC20B2F1005F00F0578325D842B1B2F14A
:10533800805F2AD10121201DFFF7DCFD2368064686
:10534800002E40F0DD820B491F04D4F8AC008A6DB2
:1053580022F0E04242EA00028A651AD4D80128D530
:10536800626C032A00F2F583DFE812F0A001F40270
:105378009A01A00100440258B2F1804FE0D0B2F186
:10538800A04FDDD0B2F1405FDAD001252E461F04D0
:10539800E4D5E26EB2F1805F00F01683B2F1005FEF
:1053A80000F0D381002A00F0D6810125D8012E46CD
:1053B800D6D4590200F18781DF0739D5A26F282A90
:1053C80000F28583DFE812F0300083038303830350
:1053D8008303830383038303CE028303830383034B
:1053E80083038303830383032900830383038303E2
:1053F80083038303830383033000830383038303CB
:1054080083038303830383033000830383038303BA
:1054180083038303830383033000012104F1240001
:10542800FFF7E4FD23680646002E00F06D8235463E
:10543800980716D5626F052A00F28E83DFE812F00E
:105448000D00800206000D000D000D00012104F181
:105458002400FFF7CBFD23680646002E00F02F82BC
:105468003546590717D5D4F89020052A00F27783D6
:10547800DFE812F00D005C0206000D000D000D00C3
:10548800012104F12400FFF7B1FD23680646002E30
:1054980000F0278235469A061DD5D4F88C20B2F143
:1054A800005F00F07D8200F285814AB1B2F1805F31
:1054B80040F08C810021201DFFF71CFD2368064663
:1054C800002E40F01982B949D4F88C004A6D22F0B8
:1054D800E04202434A655F061DD5D4F89820B2F52C
:1054E800006F00F0838200F252814AB1B2F5806FFA
:1054F80040F059810021201DFFF7FCFC2368064677
:10550800002E40F0FF81A949D4F898008A6D22F452
:10551800E05202438A6518061DD5D4F89C20B2F5DE
:10552800804F00F06D8200F223814AB1B2F5005F2E
:1055380040F02A810021201DFFF7DCFC2368064685
:10554800002E40F0D7819949D4F89C008A6D22F446
:10555800604202438A6519070BD5D4F88010B1F56B
:10556800805F00F072829148426D22F440520A43F3
:105578004265DA060BD5D4F89410B1F5807F00F0B7
:105588006F828A48826D22F440720A4382651F0343
:105598000ED5D4F8A010B1F5803F00F03C81B1F5EC
:1055A800003F00F03F81002900F0A18201252E462E
:1055B80058030FD5D4F88420B2F5001F00F01981E4
:1055C800B2F5401F00F01C81B2F5801F00F09882F0
:1055D80001252E46D90317D5E26C002A00F09E81DA
:1055E800B2F5803F40F034810221201DFFF782FC94
:1055F80006462368002E40F08F816C49E06CCA6C27
:1056080022F480320243CA649A0000F116819F0393
:1056180035D4281C18BF0120DE0206D56349256F42
:105628000A6D22F000422A430A65DD0007D55F496A
:10563800D4F8B4500A6922F480422A430A619902D4
:1056480006D55A49A56E0A6D22F080722A430A656A
:105658005A0009D5554A116921F4004111611169AF
:10566800D4F8B85029431161002B06DA4F4A216D4E
:10567800D36C23F040530B43D364BDE8F883E26F47
:10568800B2F5807F00F02A8240F2A380B2F5007F55
:1056980000F0A280B2F5407F00F09E800120BBE7B9
:1056A8000221201DFFF726FC23680646002E40F045
:1056B80016813E49606CCA6C22F003020243CA6438
:1056C80059027FF579AE3A4B1A681F4642F4807248
:1056D8001A6001F0ADFF804606E001F0A9FFA0EBDB
:1056E8000800642800F2F6813B68DA05F5D5002E3B
:1056F80040F02C822D4AD4F8B030116F594011F483
:10570800407F0BD0116F106F21F4407140F480304E
:105718001067106F20F4803010671167B3F5807F31
:1057280000F0F78103F44072B2F5407F00F0048284
:105738001E490A6922F47C520A611C4AC3F30B030E
:10574800116F0B431367236836E60121201DFFF70D
:10575800D1FB23680646002E40F0BF801349E06E57
:105768000A6D22F0405202430A65F7E50125D5E4A7
:10577800B2F5004F3FF4E4AEB2F5204F3FF4E0AE8F
:10578800B2F5C04F3FF4DCAE01252E46E3E6B2F594
:10579800805F3FF4B5AEB2F5A05F3FF4B1AEB2F5AD
:1057A800406F3FF4ADAE01252E46B4E600440258E2
:1057B80000480258B2F1804F3FF482AEB2F1A04FD8
:1057C8003FF47EAEB2F1405F3FF47AAE01252E463B
:1057D80081E6002A7FF462AF002E7FF45FAFAD4E02
:1057E800281C716D18BF012021F440710A437265AD
:1057F80012E7012104F12400FFF7F8FB23680646AD
:10580800002E68D1A349D4F884004A6D22F44012CE
:1058180002434A65DEE6022104F12400FFF7E6FBB5
:1058280023680646002E54D19A49D4F8A0008A6D00
:1058380022F4403202438A65BAE6022104F12400C8
:10584800FFF7D4FB236800283FF4E1AE0125DEE62C
:1058580001252E46D8E63546D7E4354601E53546D6
:1058680091E43546B1E40221201DFFF743FB0646CB
:105878002368002E2BD13DE502212430FFF7B6FB2B
:1058880005462368002D7FF449AC626E3FE48149E8
:10589800CA6A42F40032CA62D9E47E49CA6A42F44A
:1058A8000032CA62A6E47B49CA6A42F40032CA627C
:1058B80080E47849CA6A42F40032CA6259E47549F8
:1058C800606F4A6D22F0070202434A65C9E5354612
:1058D800A9E435466CE635467CE635463EE5354670
:1058E80067E56C49D4F890008A6D22F007020243FC
:1058F8008A65D0E535462EE63546ECE535460CE5B5
:10590800354644E5354606E66249A06F4A6D22F001
:10591800380202434A658BE5354675E65D49CA6A31
:1059280042F40032CA62002EF6D166E60121201D3B
:10593800FFF7E0FA06462368002E7FF4ABADD0E708
:105948000121201DFFF7D6FA06462368002E7FF4B2
:1059580087ADB4E74F49CA6A42F40032CA62002EE2
:10596800BDD1A6E60121201DFFF7C4FA064623682B
:10597800002E7FF45CADC7E72E46002E54D1454972
:10598800606D0A6D22F0070202430A65FFF7DDBB6E
:105998004049CA6A42F40032CA62002E97D1A9E48B
:1059A800022104F12400FFF721FB06462368002E9C
:1059B800A2D188E5012104F12400FFF717FB064670
:1059C8002368002E9AD161E43249CA6A42F400324F
:1059D800CA62002E81D1C1E6012104F12400FFF73B
:1059E80005FB06462368002E8AD1ACE4022104F1A7
:1059F8002400FFF7FBFA06462368002E82D182E5D1
:105A0800022104F12400FFF7F1FA06462368002E6C
:105A18007FF470AF97E5002104F12400FFF7E6FA60
:105A280006462368002EAAD03546FFF78EBB1949D3
:105A38002E46CA6A42F40032CA629EE70021201D3F
:105A4800FFF758FA2368064697E7022104F1240075
:105A5800FFF7CCFA236800283FF48BAD012588E5D1
:105A6800022104F12400FFF7C1FA236800283FF45B
:105A78008EAD01258BE5002104F12400FFF7B6FA6D
:105A880023680646FFF7B6BB02210430FFF732FA57
:105A98000546F6E600440258002104F12400FFF709
:105AA800A5FA23680646FFF7D2BB002104F12400BB
:105AB800FFF79CFA23680646FFF77CBB002104F138
:105AC8002400FFF793FA23680646FFF752BB012527
